:020000040800F2
:1000000000000520250A0008750A0008750A000886
:10001000750A0008750A0008750A0008000000004B
:10002000000000000000000000000000750A000849
:10003000750A000800000000750A0008750A00082B
:10004000750A0008750A0008750A0008750A000894
:10005000750A0008750A0008750A0008750A000884
:10006000750A0008750A0008750A0008750A000874
:10007000750A0008750A0008750A0008750A000864
:10008000750A0008750A0008750A0008750A000854
:10009000750A0008750A0008750A0008750A000844
:1000A000750A0008750A0008750A0008750A000834
:1000B000750A0008750A0008750A0008750A000824
:1000C000750A00087D060008750A0008750A000810
:1000D000750A0008750A0008750A0008750A000804
:1000E000750A0008750A0008750A0008750A0008F4
:1000F000750A0008750A0008750A0008750A0008E4
:10010000750A0008750A0008750A0008750A0008D3
:10011000750A0008750A0008750A0008750A0008C3
:10012000750A0008750A0008750A0008750A0008B3
:10013000750A0008750A0008750A0008750A0008A3
:10014000750A0008750A0008750A0008750A000893
:10015000750A0008750A0008750A0008750A000883
:10016000750A0008750A0008750A0008750A000873
:10017000750A0008750A0008750A0008750A000863
:10018000750A0008750A0008750A0008750A000853
:10019000750A0008750A0008750A0008750A000843
:1001A000750A0008750A0008750A0008750A000833
:1001B000750A0008750A0008750A0008750A000823
:0801C000750A0008750A000829
:1001C80010B5054C237833B9044B13B10448AFF389
:1001D80000800123237010BD6C0000200000000087
:1001E800D814000808B5034B1BB103490348AFF303
:1001F800008008BD0000000070000020D81400082E
:1002080080B489B000AFF860B9607A60FB681B6899
:10021800BA687A617A6992FAA2F23A613A69B2FAEC
:1002280082F2D2B25200032101FA02F2D2431A40FA
:10023800BB68FB61FB6993FAA3F3BB61BB69B3FAC3
:1002480083F3DBB25B00796801FA03F31A43FB68B6
:100258001A6000BF2437BD465DF8047B7047000074
:1002680080B483B000AF0346FB7197F90730002BC9
:100278000BDBFB7903F01F02074997F907305B098D
:10028800012000FA02F241F8232000BF0C37BD46D6
:100298005DF8047B704700BF00E100E080B500AF67
:1002A800524B1B6B514A43F002031363504B1B68BC
:1002B8004F4A23F4801313604D4B1B684C4A43F498
:1002C800001313604A4B5B6A494A23F480735362F4
:1002D800474B5B6A464A23F400735362444B5B6A9C
:1002E800434A43F480635362414B5B6A404A23F4B8
:1002F800006353623E4B5B683D4A43F4806353603E
:100308003B4BDB683A4A43F48013D360384BDB68D5
:10031800374A23F40013D360354B1B68344A23F45F
:1003280080031360324B1B68314A43F400031360A7
:100338002F4B5B6A2E4A23F4805353622C4B5B6A23
:100348002B4A23F400535362294B5B6A284A43F42F
:1003580080435362264B5B6A254A23F40043536269
:10036800234B5B68224A43F400635360204BDB68ED
:100378001F4A43F48003D3601D4BDB681C4A23F4F7
:100388000003D360194B1B6C184A43F480031364B1
:100398002120FFF765FF174B1B68164A23F001035E
:1003A800136000215A2000F0BDF8124B9B68114AD7
:1003B80043F4004393600F4B1B680E4A43F001035C
:1003C80013600C4B1B680B4A43F008031360094B7E
:1003D8001B68084A43F010031360064B1B68054A64
:1003E80043F02003136000BF80BD00BF0038024007
:1003F800000402400058004080B400AF454B1B6B1E
:10040800444A43F002031363434B1B68424A23F4F4
:1004180080531360404B1B683F4A43F400531360FA
:100428003D4B1B6A3C4A23F0807313623A4B1B6AAC
:10043800394A23F000731362374B1B6A364A43F07C
:1004480080631362344B1B6A334A23F000631362E0
:10045800314B5B68304A43F0400353602E4BDB68F6
:100468002D4A43F48053D3602B4BDB682A4A23F48C
:100478000053D360284B1B68274A23F4802313605A
:10048800254B1B68244A43F400231360224B5B6A04
:10049800214A23F0100353621F4B5B6A1E4A23F064
:1004A800200353621C4B5B6A1B4A43F040035362B0
:1004B800194B5B6A184A23F080035362164B5B683A
:1004C800154A43F400735360134BDB68124A43F434
:1004D8008023D360104BDB680F4A23F40023D360DA
:1004E8000C4B1B6C0B4A43F4001313640B4B1B6837
:1004F8000A4A23F001031360084B094A1A61074BA3
:100508001B68064A43F00103136000BFBD465DF84F
:10051800047B704700380240000402400054004049
:100528005B3D300080B483B000AF78603960084B21
:100538009A68084B134079683A680A430449134398
:100548008B6000BF0C37BD465DF8047B704700BF69
:100558000058004000F8FFFF80B400AF054B9B69CE
:100568005B0C5B0003F0FE031846BD465DF8047B98
:10057800704700BF0058004080B500AF00F08AF90E
:10058800044800F015FBFFF789FEFFF735FF00F080
:1005980003F8FEE7F014000880B400AF204B5B6856
:1005A8001F4A43F05A0353601D4B5B681C4A23F4EF
:1005B800006353601A4B5B681A4A1278120411469A
:1005C800174A0B435360164B5B68154A43F0007398
:1005D8005360134B5B68124A43F4005353600DE0B9
:1005E8000F4B9B6903F00203002B07D00E4B1B68CF
:1005F8005A1C0D490A601A78094B9A62084B9B6984
:1006080003F02003002BEBD0054BDB69044A43F0D1
:100618002003D36100BFBD465DF8047B704700BF6F
:1006280000540040040000200000002080B400AF07
:10063800084B596A084B1B78DBB25A1CD0B2064AE1
:1006480010701A46C9B2054B995400BFBD465DF8F3
:10065800047B7047005800408E000020880000206E
:1006680080B500AF024800F0A3FA00BF80BD00BF0C
:100678000C15000880B500AF184B9B6903F0080300
:10068800002B11D0FFF768FF03465A2B23D1134BD9
:10069800DB69124A43F00803D361104B1B680F4A09
:1006A80043F00403136016E00C4B9B6903F004034A
:1006B800002B02D0FFF7BAFF0DE0084B9B6903F04F
:1006C8002003002B07D0054BDB69044A43F02003C5
:1006D800D361FFF7C5FF00BF80BD00BF00580040D1
:1006E80080B483B000AF7860054B1A6B04497B680F
:1006F80013430B6300BF0C37BD465DF8047B70479E
:100708000038024080B483B000AF7860054B1A6CA3
:1007180004497B6813430B6400BF0C37BD465DF882
:10072800047B70470038024080B586B000AFF8609F
:10073800B9607A6000237B610AE0AFF3008001466C
:10074800BB685A1CBA60CAB21A707B6901337B61F4
:100758007A697B689A42F0DB7B6818461837BD4691
:1007680080BD80B586B000AFF860B9607A600023BC
:100778007B6109E0BB685A1CBA601B78184600F018
:1007880077F87B6901337B617A697B689A42F1DB90
:100798007B6818461837BD4680BD80B483B000AF6B
:1007A80078604FF0FF3318460C37BD465DF8047B80
:1007B800704780B483B000AF786039603B684FF40D
:1007C80000525A60002318460C37BD465DF8047B7A
:1007D800704780B483B000AF7860012318460C37A7
:1007E800BD465DF8047B704780B485B000AFF86003
:1007F800B9607A60002318461437BD465DF8047B5B
:100808007047000080B586B000AF7860144A154B79
:10081800D31A7B617B693B61134B1B68002B02D1A8
:10082800114B124A1A60104B1A687B6813443A69D4
:100838009A4207D200F01CF903460C221A604FF0C6
:10084800FF3309E0084B1B68FB60074B1A687B689D
:100858001344054A1360FB6818461837BD4680BD27
:10086800000005200004000090000020A8000020DF
:1008780080B582B000AF78607B68DBB21946044867
:1008880000F04AF87B6818460837BD4680BD00BFAF
:100898000048004080B500AF0820FFF721FF022282
:1008A8004FF480711948FFF7ABFC184B5B6A174A85
:1008B80043F001035362154B5B6A144A43F0020389
:1008C8005362124B5B6A114A43F0040353620F4BA5
:1008D8005B6A0E4A23F0080353624FF48020FFF747
:1008E80011FF002300220021094800F061F80821C7
:1008F800074800F037F84FF4E1320649044800F0A1
:1009080044F8034800F01EF800BF80BD000C024008
:10091800004800400024F40080B483B000AF786041
:100928000B46FB7000BF7B68DB6903F08003002B7C
:10093800F9D0FA787B689A6200BF0C37BD465DF83B
:10094800047B704780B483B000AF78607B681B6815
:1009580043F001027B681A6000BF0C37BD465DF8A2
:10096800047B704780B483B000AF786039607B68DF
:100978001B6823F00C023B681A437B681A6000BFAF
:100988000C37BD465DF8047B704780B584B000AF76
:10099800F860B9607A607968B86800F02BF80346A7
:1009A8001A46FB68DA6000BF1037BD4680BD0000FC
:1009B80080B485B000AFF860B9607A603B60FB68CE
:1009C8001A680B4B13407968BA680A431A43FB68E4
:1009D8001A60FB685B6823F440523B681A43FB6863
:1009E8005A6000BF1437BD465DF8047B704700BFEE
:1009F800FFE9FFEF80B483B000AF786039603B68EF
:100A08005A087B681A443B68B2FBF3F39BB218465A
:100A18000C37BD465DF8047B704700000D488546DD
:100A2800AFF300800C480D490D4A002302E0D4586A
:100A3800C4500433C4188C42F9D30A4A0A4C002320
:100A480001E013600432A242FBD300F017F8FFF76D
:100A580093FDFEE700000520000000206C00002048
:100A68009C1500086C000020A4000020FEE7000090
:100A7800014B1868704700BF0800002070B50D4D85
:100A88000D4C641BA4100026A64209D10B4D0C4C3A
:100A980000F01EFD641BA4100026A64205D170BDFF
:100AA80055F8043B98470136EEE755F8043B98475C
:100AB8000136F2E79415000894150008941500080B
:100AC8009815000802440346934200D1704703F882
:100AD800011BF9E770B50E46054618B183690BB9D5
:100AE80000F048FAAB69AC6813B9284600F042FA3E
:100AF8002C4B9C4220D16C68636EDB0705D4A3891C
:100B0800980502D4A06D00F0D3FAA38919071DD562
:100B18002369DBB1013EA36816F8011F013BA360FE
:100B280039BB002B38DA22460A21284600F048F85B
:100B3800013011D00A2511E01B4B9C4201D1AC6851
:100B4800DAE71A4B9C4208BFEC68D5E721462846ED
:100B580000F088F80028DDD04FF0FF35636EDA0723
:100B680005D4A3899B0502D4A06D00F0A2FA2846FB
:100B780070BD002B04DAA2699A4206DC0A2904D067
:100B880023685A1C22601970C5E72246284600F0DF
:100B980017F80130BFD1DFE723680A255A1C226005
:100BA8001D70DBE75415000874150008341500089B
:100BB800024B01461868FFF78DBF00BF08000020F0
:100BC800F8B50E461446054618B183690BB900F00E
:100BD800D1F9214B9C422BD16C68A369A360A389EE
:100BE8001A072FD523696BB323692068C01A636974
:100BF800F6B28342374604DC2146284600F026F93F
:100C080030BBA368013BA36023685A1C22601E7096
:100C180063690130834204D0A389DB0706D50A2E15
:100C280004D12146284600F011F988B93846F8BDA4
:100C38000A4B9C4201D1AC68CFE7094B9C4208BFE4
:100C4800EC68CAE72146284600F00CF80028CBD00B
:100C58004FF0FF37EAE700BF541500087415000885
:100C680034150008324B70B51D6806460C4625B190
:100C7800AB6913B9284600F07DF92E4B9C420FD181
:100C88006C68A389B4F90C2019072CD4DD0611D49B
:100C98000923336042F04003A3814FF0FF303EE068
:100CA800254B9C4201D1AC68EBE7244B9C4208BF22
:100CB800EC68E6E7580712D5616B41B104F14403CB
:100CC800994202D0304600F05BFA00236363A3899F
:100CD80023F02403A3810023636023692360A3898D
:100CE80043F00803A38123694BB9A38903F4207354
:100CF800B3F5007F03D02146304600F001FAA08901
:100D0800B4F90C2010F001030AD00023A360636932
:100D18005B42A361236943B910F08000BAD170BD6A
:100D2800810758BF6369A360F4E70020F7E700BFB5
:100D38000800002054150008741500083415000830
:100D48008A892DE9F041054610070C4658D44B68AE
:100D5800002B05DC0B6C002B02DC0020BDE8F081C9
:100D6800E66A002EF9D0002312F480522F682B6017
:100D780032D0606DA3895A0705D56368C01A636BC2
:100D88000BB1236CC01A00230246E66A216A284682
:100D9800B047431CA38906D129681D292CD82A4AA3
:100DA800CA40D60728D500226260D9042269226089
:100DB80004D5421C01D12B6803B96065616B2F60B3
:100DC8000029CAD004F14403994202D0284600F011
:100DD800D7F900206063C1E7216A01232846B0479C
:100DE800411CC7D12B68002BC4D01D2B01D0162B5A
:100DF80001D12F60B1E7A38943F04003A381ADE798
:100E08000F69002FA9D093070E6808BF4B690F60C0
:100E180018BF0023A6EB07088B60B8F1000F9CDD14
:100E2800216AA66A43463A462846B047002806DCA7
:100E3800A38943F04003A3814FF0FF308EE70744B6
:100E4800A8EB0008E9E700BF0100402038B50B69AE
:100E580005460C4613B90025284638BD18B18369E4
:100E68000BB900F087F8144B9C421BD16C68B4F99D
:100E78000C30002BEFD0626ED00704D4990502D451
:100E8800A06D00F015F928462146FFF759FF636E5B
:100E9800DA070546E0D4A3899B05DDD4A06D00F0F0
:100EA80008F9D9E7054B9C4201D1AC68DFE7044B50
:100EB8009C4208BFEC68DAE754150008741500086E
:100EC80034150008002310B50446C0E90033C0E912
:100ED8000433836081814366C28183611946082295
:100EE8005C30FFF7EFFD054B6362054BA362054BD2
:100EF800E362054B2462236310BD00BF6913000839
:100F08008B130008C3130008E7130008014900F019
:100F1800AFB800BF550E000870B568224D1E554386
:100F28000E4605F1740100F097F9044640B100211E
:100F3800C0E900160C30A06005F16802FFF7C2FD99
:100F4800204670BD014800F0B3B800BF95000020EE
:100F5800014800F0AEB800BF95000020014800F03D
:100F6800A7B800BF96000020014800F0A2B800BF53
:100F78009600002010B50446FFF7F0FFA3691BB1E7
:100F8800BDE81040FFF7F0BFC4E912332365134BE7
:100F9800134A1B68A262A34204BF0123A36120462F
:100FA80000F020F86060204600F01CF8A0602046A1
:100FB80000F018F80022E06004216068FFF782FF63
:100FC800A06801220921FFF77DFFE06802221221B3
:100FD800FFF778FF0123A361D2E700BF30150008AF
:100FE800150F0008F8B50746FFF7ACFF1E4B1E6843
:100FF800B36913B93046FFF7BDFF4836D6E9013467
:10100800013B03D533680BB33668F7E7B4F90C50E6
:10101800D5B9164BE36004F15800656600F047F84F
:10102800FFF796FFC4E90155C4E904552560A56199
:101038000822294604F15C00FFF744FDC4E90D5578
:10104800C4E912552046F8BD6834D9E7042138466A
:10105800FFF762FF044630600028D5D1FFF778FF1C
:101068000C233B60EEE700BF301500080100FFFFCE
:101078002DE9F8430646884600F148040027D4E9DC
:101088000195B9F1010905D52468002CF7D1384636
:10109800BDE8F883AB89012B07D9B5F90E300133C8
:1010A80003D029463046C04707436835E9E770470B
:1010B8007047704770B50E46B1F90E10002996B00A
:1010C80014461D4608DAB6F90C3000222A601A06C2
:1010D80010D44FF480630EE06A4600F0A7F90028A8
:1010E800F1DB019A02F47042A2F500535A425A41C8
:1010F8002A60EEE740230020236016B070BD000090
:101108008B8973B59D0706460C4607D504F147033E
:10111800236023610123636102B070BD01AB6A469D
:10112800FFF7C8FF00990546304600F095F848B922
:10113800B4F90C309A05EFD423F0030343F002030B
:10114800A381E3E70D4BB362A389206043F08003DA
:10115800A381009B6361019B20615BB1B4F90E1010
:10116800304600F075F928B1A38923F0030343F052
:101178000103A381A0890543A581CDE7150F0008C8
:1011880037B5002944D051F8043C0190002BA1F157
:101198000404B8BFE41800F07DF91E4A01981368EA
:1011A80033B96360146003B0BDE8304000F078B92B
:1011B800A34208D9256861198B4201BF19685B6889
:1011C80049192160EDE71A465B680BB1A342FAD9C9
:1011D80011685518A5420BD1246821445418A3421C
:1011E8001160E0D11C685B68536021441160DAE744
:1011F80002D90C230360D6E7256861198B4204BF26
:1012080019685B68636004BF491921605460CAE7C4
:1012180003B030BD9800002070B50E4E0C46316802
:10122800054611B900F08CF830602146284600F0D8
:1012380087F8431C0AD0C41C24F00304A04207D03A
:10124800211A284600F07CF8013001D14FF0FF3414
:10125800204670BD9C0000202DE9F041CD1C25F0F2
:10126800030508350C2D38BF0C25002D074601DB7A
:10127800A94205D90C233B6000263046BDE8F08121
:101288002E4E00F007F933681C4634BB2946384611
:10129800FFF7C2FF431C04464DD134682646002E92
:1012A80040D123683146384604EB030800F048F87B
:1012B80080453AD1216803356D1A25F003050835B4
:1012C8000C2D38BF0C2529463846FFF7A5FF0130FD
:1012D8002BD023682B4423600EE02268521B1ED4B7
:1012E8000B2A16D96119A342256018BF5960636893
:1012F80008BF316062514B60384604F10B0600F0BC
:10130800CFF826F00706231DF21AB6D09B1BA35070
:10131800B3E76268A3420CBF32605A60ECE7234629
:101328006468B2E734467668B9E70C233B60384610
:1013380000F0B6F8A1E72560DEE700BF98000020BE
:1013480038B5064D0023044608462B60FFF75AFAC5
:10135800431C02D12B6803B1236038BDA0000020D4
:1013680010B50C46B1F90E1000F0A0F80028ABBF7C
:10137800636DA3891B1823F48053ACBF6365A381F5
:1013880010BD2DE9F0411F468B89DB0505460C464B
:10139800164605D5B1F90E100223002200F068F8B0
:1013A800A389B4F90E1023F48053A38132463B4637
:1013B8002846BDE8F04100F017B810B50C46B1F961
:1013C8000E1000F055F8431CA38915BF606523F47F
:1013D800805343F48053A38118BFA38110BDB1F992
:1013E8000E1000F013B8000038B5074D0446084643
:1013F800114600222A601A46FFF7B3F9431C02D1AE
:101408002B6803B1236038BDA000002038B5064D15
:101418000023044608462B60FFF7BFF9431C02D19E
:101428002B6803B1236038BDA000002038B5074DF4
:1014380000230446084611462B60FFF7BAF9431CFF
:1014480002D12B6803B1236038BD00BFA000002083
:1014580038B5064D0023044608462B60FFF7B9F956
:10146800431C02D12B6803B1236038BDA0000020C3
:1014780038B5074D04460846114600222A601A4628
:10148800FFF7B2F9431C02D12B6803B1236038BDC2
:10149800A00000200148FFF70BBE00BF9400002009
:1014A8000148FFF706BE00BF9400002038B5074D7D
:1014B80004460846114600222A601A46FFF734F906
:1014C800431C02D12B6803B1236038BDA000002063
:1014D800F8B500BFF8BC08BC9E467047F8B500BF19
:0814E800F8BC08BC9E467047E9
:1014F0005374617274696E672049324320436F6D83
:101500006D756E69636174696F6E00005472616E0F
:10151000736D697373696F6E20636F6D706C657442
:10152000652E2E2E0000000048656C6C6F000000D8
:101530000C0000200000000000000000000000007F
:10154000000000000000000000000000000000009B
:10155000000000000000000000000000000000008B
:10156000000000000000000000000000000000007B
:10157000000000000000000000000000000000006B
:10158000000000000000000000000000000000005B
:041590000000000057
:04159400ED0100085D
:04159800C90100087D
:10159C0028150008060000000C00002000000000C8
:1015AC0054150008741500083415000800000000DC
:1015BC00000000000000000000000000000000001F
:1015CC00000000000000000000000000000000000F
:1015DC0000000000000000000000000000000000FF
:1015EC0000000000000000000000000000000000EF
:0C15FC00000000000000000000000000E3
:0400000508000A25C0
:00000001FF
