:020000040800F2
:1000000000000520D507000825080008250800087D
:100010002508000825080008250800080000000041
:10002000000000000000000000000000250800089B
:100030002508000800000000250800082508000821
:1000400025080008250800082508000825080008DC
:1000500025080008250800082508000825080008CC
:1000600025080008250800082508000825080008BC
:1000700025080008250800082508000825080008AC
:10008000250800082508000825080008250800089C
:10009000250800082508000825080008250800088C
:1000A000250800082508000825080008250800087C
:1000B000250800082508000825080008250800086C
:1000C0002508000825080008250800081103000875
:1000D000250800082508000825080008250800084C
:1000E000250800082508000825080008250800083C
:1000F000250800082508000825080008250800082C
:1001000025080008250800082508000881030008C4
:10011000250800082508000825080008250800080B
:1001200025080008250800082508000825080008FB
:1001300025080008250800082508000825080008EB
:1001400025080008250800082508000825080008DB
:1001500025080008250800082508000825080008CB
:1001600025080008250800082508000825080008BB
:1001700025080008250800082508000825080008AB
:10018000250800082508000825080008250800089B
:10019000250800082508000825080008250800088B
:1001A000250800082508000825080008250800087B
:1001B000250800082508000825080008250800086B
:0801C0002508000825080008CD
:1001C80010B5054C237833B9044B13B10448AFF389
:1001D80000800123237010BD1400002000000000DF
:1001E8007008000808B5034B1BB103490348AFF377
:1001F800008008BD000000001800002070080008FA
:1002080080B483B000AF0346FB7197F90730002B29
:100218000BDBFB7903F01F02074997F907305B09ED
:10022800012000FA02F241F8232000BF0C37BD4636
:100238005DF8047B704700BF00E100E080B500AFC7
:10024800094B5B68084A43F080035360074B5B68BF
:10025800064A43F0400353602320FFF7D1FF3320C1
:10026800FFF7CEFF00BF80BD00300140003C0040DA
:1002780080B500AF00F0ACF800F09CF900F096FAF9
:1002880000F084FAFFF7DAFF044B1B78DAB2044B6C
:100298001B789A42F8D3034B1B78F5E7300000200F
:1002A8000F0000204300002080B483B000AF114B42
:1002B8001B78DAB2104B1B789A420ED20F4B7B6038
:1002C8000C4B1B78DBB25A1CD1B20A4A11701A4681
:1002D8000B4B9A5C7B681A7005E00A4B5B68094A0D
:1002E80023F08003536000BF0C37BD465DF8047BE4
:1002F800704700BF300000200F0000200C30014084
:10030800000000200030014080B500AF044B9B681E
:1003180003F00203002B01D0FFF7C6FF00BF80BD2A
:100328000030014080B400AF0F4B1B78DAB20F4B9E
:100338001B789A420DD20E4BD9680B4B1B78DBB257
:100348005A1CD0B2084A10701A46C9B2094B9954BF
:1003580005E0074B5B68064A23F04003536000BF83
:10036800BD465DF8047B7047430000201000002064
:10037800003C00403400002080B500AF044B9B686F
:1003880003F00103002B01D0FFF7CCFF00BF80BDB5
:10039800003C004080B483B000AF0346FB7197F97E
:1003A8000730002B0BDBFB7903F01F02074997F995
:1003B80007305B09012000FA02F241F8232000BF50
:1003C8000C37BD465DF8047B704700BF00E100E0D4
:1003D80080B500AF744B1B6B734A43F00103136382
:1003E800724B1B68714A23F4806313606F4B1B6860
:1003F8006E4A43F4006313606C4B1B6A6B4A43F408
:1004080080131362694B1B6A684A23F40013136252
:10041800664B1B6A654A43F480031362634B1B6A8D
:10042800624A23F400031362604B9B685F4A43F4FB
:10043800806393605D4B9B685C4A43F40063936000
:100448005A4BDB68594A23F48063D360574BDB6807
:10045800564A43F40063D360544B1B68534A23F451
:1004680080431360514B1B68504A43F400431360A8
:100478004E4B1B6A4D4A43F0805313624B4B1B6A29
:100488004A4A23F000531362484B1B6A474A43F019
:1004980080431362454B1B6A444A23F000431362AE
:1004A800424B9B68414A43F4804393603F4B9B68AF
:1004B8003E4A43F4004393603C4BDB683B4A23F4D9
:1004C8008043D360394BDB68384A43F40043D36038
:1004D8002320FFF75FFF344B5B6C334A43F48053B0
:1004E8005364334B1B68324A43F008031360304BA4
:1004F8001B682F4A43F0100313602D4B1B682C4ACE
:1005080043F0200313602A4B1B68294A43F48043B5
:100518001360274B1B68264A43F400431360244B9F
:100528001B68234A43F001031360214B1B68204AD0
:1005380043F0020313601E4B5B681D4A43F480734B
:1005480053601B4B5B681A4A43F400735360184BA3
:100558005B68174A43F480635360154B5B68144A21
:1005680023F400635360124B1B68114A43F4007371
:1005780013600F4B5B680E4A43F0040353600C4B47
:100588005B680B4A43F480535360094B5B68084A25
:1005980043F080035360064B1B68054A43F004038D
:1005A800136000BF80BD00BF003802400000024059
:1005B8000030014080B500AF714B1B6B704A43F0AF
:1005C800020313636F4B1B686E4A23F040031360EA
:1005D8006C4B1B686B4A43F080031360694B1B6AC2
:1005E800684A23F480531362664B1B6A654A43F4D6
:1005F80000531362634B1B6A624A43F480431362DD
:10060800604B1B6A5F4A23F4004313625D4B9B688F
:100618005C4A43F0400393605A4B9B68594A43F045
:1006280080039360574BDB68564A23F04003D3603E
:10063800544BDB68534A43F08003D360514B1B682B
:10064800504A23F4807313604E4B1B684D4A43F4A1
:10065800007313604B4B1B6A4A4A23F480331362BE
:10066800484B1B6A474A43F400331362454B1B6AE5
:10067800444A43F480231362424B1B6A414A23F4E1
:10068800002313623F4B9B683E4A43F48073936098
:100698003C4B9B683B4A43F400739360394BDB68DF
:1006A800384A23F48073D360364BDB68354A43F409
:1006B8000073D3603320FFF76DFE314B1B6C304A5B
:1006C80043F400431364304B1B682F4A43F008037C
:1006D80013602D4B1B682C4A43F0100313602A4B00
:1006E8001B68294A43F020031360274B1B68264ADE
:1006F80043F001031360244B1B68234A43F00203B1
:100708001360214B5B68204A43F4807353601E4B8F
:100718005B681D4A43F4007353601B4B5B681A4ABD
:1007280043F480635360184B5B68174A23F40063F3
:100738005360154B1B68144A43F400731360124B43
:100748005B68114A43F0040353600F4B1B680E4A61
:1007580043F4004313600C4B1B680B4A23F480439B
:100768001360094B5B68084A43F480535360064B97
:100778005B68054A43F04003536000BF80BD00BF7B
:100788000038024000040240003C004080B400AF42
:10079800054B1B68044A43F04003136000BFBD4685
:1007A8005DF8047B704700BF0030014080B400AFA3
:1007B800054B1B68044A43F04003136000BFBD4665
:1007C8005DF8047B704700BF003C00400D4885463B
:1007D800AFF300800C480D490D4A002302E0D458BD
:1007E800C4500433C4188C42F9D30A4A0A4C002373
:1007F80001E013600432A242FBD300F011F8FFF7C6
:1008080037FDFEE70000052000000020140000204E
:10081800900800081400002044000020FEE70000B3
:1008280070B50D4D0D4C641BA4100026A64209D1CD
:100838000B4D0C4C00F018F8641BA4100026A642BF
:1008480005D170BD55F8043B98470136EEE755F8D9
:10085800043B98470136F2E7880800088808000832
:10086800880800088C080008F8B500BFF8BC08BC68
:100878009E467047F8B500BFF8BC08BC9E46704756
:04088800ED01000876
:04088C00C901000896
:1008900048656C6C6F2066726F6D20535049000E76
:0408A0000E00000046
:04000005080007D513
:00000001FF
