:020000040800F2
:1000000000000520FD0500084D0600084D0600080B
:100010004D0600084D0600084D06000800000000CF
:100020000000000000000000000000004D06000875
:100030004D060008000000004D0600084D060008AF
:100040004D0600084D0600084D0600084D06000844
:100050004D0600084D0600084D0600084D06000834
:100060004D0600084D0600084D0600084D06000824
:100070004D0600084D0600084D0600084D06000814
:100080004D0600084D0600084D0600084D06000804
:100090004D0600084D0600084D0600084D060008F4
:1000A0004D0600084D0600084D0600084D060008E4
:1000B0004D0600084D0600084D0600084D060008D4
:1000C0004D0600084D0600084D0600084D060008C4
:1000D0004D0600084D0600084D0600084D060008B4
:1000E0004D0600084D0600084D0600084D060008A4
:1000F0004D0600084D0600084D0600084D06000894
:100100004D0600084D0600084D0600084D06000883
:100110004D0600084D0600084D0600084D06000873
:100120004D0600084D0600084D0600084D06000863
:100130004D0600084D0600084D0600084D06000853
:100140004D0600084D0600084D0600084D06000843
:100150004D0600084D0600084D0600084D06000833
:100160004D0600084D0600084D0600084D06000823
:100170004D0600084D0600084D0600084D06000813
:100180004D0600084D0600084D0600084D06000803
:100190004D0600084D0600084D0600084D060008F3
:1001A0004D0600084D0600084D0600084D060008E3
:1001B0004D0600084D0600084D0600084D060008D3
:0801C0004D0600084D06000881
:1001C80010B5054C237833B9044B13B10448AFF389
:1001D80000800123237010BD0000002000000000F3
:1001E8009806000808B5034B1BB103490348AFF351
:1001F800008008BD000000000400002098060008E8
:1002080080B489B000AFF860B9607A60FB681B6899
:10021800BA687A617A6992FAA2F23A613A69B2FAEC
:1002280082F2D2B25200032101FA02F2D2431A40FA
:10023800BB68FB61FB6993FAA3F3BB61BB69B3FAC3
:1002480083F3DBB25B00796801FA03F31A43FB68B6
:100258001A6000BF2437BD465DF8047B7047000074
:1002680080B400AF174B1B6B164A43F002031363AD
:10027800154B1B68144A43F001031360124B1B68AB
:10028800114A23F0020313600F4B1B680E4A43F414
:10029800804313600C4B1B680B4A23F40043136024
:1002A800094B1B68084A43F080531360064B1B68D0
:1002B800054A23F00053136000BFBD465DF8047B78
:1002C800704700BF003802400004024080B400AF0D
:1002D800054B5A69044944F2810313434B6100BF3B
:1002E800BD465DF8047B70470004024080B400AF4F
:1002F800054B5A690449054B13404B6100BFBD4685
:100308005DF8047B704700BF000402407EBFFFFF1A
:1003180080B483B000AF7860054B5A6904497B68A4
:1003280013434B6100BF0C37BD465DF8047B704733
:100338000004024080B500AFFFF792FF00F07AF8A2
:10034800284800F0D7F803461A46274B1A70264B60
:100358001B78302B30D0302B41DB722B3FDC612BEC
:100368003DDB613B112B3AD801A252F823F000BFC4
:10037800C7030008CD030008E7030008E7030008E7
:10038800E7030008E7030008D5030008E7030008AF
:10039800E7030008E7030008E7030008E70300088D
:1003A800E7030008E7030008E7030008E70300087D
:1003B800E7030008DD030008FFF798FF10E0FFF7E8
:1003C80085FF0DE08020FFF7A3FF09E00120FFF77C
:1003D8009FFF05E04FF48040FFF79AFF00E000BF61
:1003E800AEE700BF004800401C00002080B483B086
:1003F80000AF7860054B1A6B04497B6813430B63A5
:1004080000BF0C37BD465DF8047B704700380240DA
:1004180080B483B000AF7860054B1A6C04497B68E0
:1004280013430B6400BF0C37BD465DF8047B70476F
:100438000038024080B500AF0820FFF7D7FF02223E
:100448004FF480712848FFF7DBFE274B5B6A264A8A
:1004580043F001035362244B5B6A234A43F00203CF
:100468005362214B5B6A204A43F0040353621E4BDC
:100478005B6A1D4A23F00803536202224FF400719D
:100488001948FFF7BDFE184B5B6A174A43F0100383
:100498005362154B5B6A144A43F020035362124BB4
:1004A8005B6A114A43F0400353620F4B5B6A0E4A82
:1004B80023F0800353624FF48020FFF7A9FF002345
:1004C80000220021094800F05FF80C21074800F0DD
:1004D80035F84FF4E1320649044800F042F8034881
:1004E80000F01CF800BF80BD000C0240004800402E
:1004F8000024F40080B483B000AF786000BF7B684C
:10050800DB6903F02003002BF9D07B685B6ADBB260
:1005180018460C37BD465DF8047B704780B483B03D
:1005280000AF78607B681B6843F001027B681A6043
:1005380000BF0C37BD465DF8047B704780B483B0BC
:1005480000AF786039607B681B6823F00C023B6859
:100558001A437B681A6000BF0C37BD465DF8047B00
:10056800704780B584B000AFF860B9607A60796888
:10057800B86800F02BF803461A46FB68DA6000BF3B
:100588001037BD4680BD000080B485B000AFF8606C
:10059800B9607A603B60FB681A680B4B1340796856
:1005A800BA680A431A43FB681A60FB685B6823F45D
:1005B80040523B681A43FB685A6000BF1437BD4677
:1005C8005DF8047B704700BFFFE9FFEF80B483B09C
:1005D80000AF786039603B685A087B681A443B680A
:1005E800B2FBF3F39BB218460C37BD465DF8047BAB
:1005F800704700000D488546AFF300800C480D4950
:100608000D4A002302E0D458C4500433C4188C4265
:10061800F9D30A4A0A4C002301E013600432A242CB
:10062800FBD300F011F8FFF785FEFEE70000052078
:100638000000002000000020B8060008000000208C
:1006480020000020FEE7000070B50D4D0D4C641B26
:10065800A4100026A64209D10B4D0C4C00F018F846
:10066800641BA4100026A64205D170BD55F8043BB2
:1006780098470136EEE755F8043B98470136F2E70C
:10068800B0060008B0060008B0060008B406000866
:10069800F8B500BFF8BC08BC9E467047F8B500BF67
:0806A800F8BC08BC9E46704737
:0406B000ED01000850
:0406B400C901000870
:04000005080005FDED
:00000001FF
